S0120000506973695842656535312E73726563B3
S11300000C94FE000C941B010C941B010C941B011A
S11300100C941B010C941B010C941B010C941B01EC
S11300200C941B010C941B010C941B010C941B01DC
S11300300C941B010C941B010C941B010C941B01CC
S11300400C941B010C941B010C941B010C941B01BC
S11300500C941B010C941B010C941B010C941B01AC
S11300600C941B010C941B010C941B010C941B019C
S11300700C941B010C941B010C941B010C941B018C
S11300800C941B010C941B010C941B010C941B017C
S11300900C941B010C941B010C941B010C941B016C
S11300A00C941B010C941B010C941B010C941B015C
S11300B00C941B010C941B010C94E7030C945C013D
S11300C00C941B010C941B010C941B010C941B013C
S11300D00C941B010C941B010C941B010C941B012C
S11300E00C941B010C941B010C94E3010C94090265
S11300F00C941B010C941B010C941B010C941B010C
S11301000C941B010C941B010C941B010C941B01FB
S11301100C941B010C941B010C941B010C941B01EB
S11301200C941B010C941B010C941B010C941B01DB
S11301300C941B010C941B010C941B010C941B01CB
S11301400C941B010C941B010C941B010C941B01BB
S11301500C941B010C941B010C941B010C941B01AB
S11301600C941B010C941B010C941B010C941B019B
S11301700C941B010C941B010C941B010C941B018B
S11301800C941B010C941B010C941B010C941B017B
S11301900C941B010C941B010C941B010C941B016B
S11301A00C941B010C941B010C941B010C941B015B
S11301B00C941B010C941B010C941B010C941B014B
S11301C00C941B010C941B010C941B010C941B013B
S11301D00C941B010C941B010C941B010C941B012B
S11301E00C941B010C941B010C941B010C941B011B
S11301F00C941B010C941B010C941B0111241FBEB5
S1130200CFEFCDBFDFE2DEBF10E2A0E0B0E2ECEE64
S1130210F3E102C005900D92A832B107D9F720E2AC
S1130220A8E2B0E201C01D92A13AB207E1F70E9430
S113023065060C94F4090C94000080E092E00E949E
S11302407702E0E0F2E08181897E806181838281AE
S11302508F78806182838481887F84608483A0E234
S1130260B2E08C91807E81608C9380E411968C93B3
S113027080818160808380E092E00E94390241E0C5
S113028060E272E080E092E00E94440280932820C1
S11302900895880F880F880FE0E2F2E0818380815F
S11302A080688083838180FFFDCF6091282080E275
S11302B092E00E942F0208951F920F920FB60F92A0
S11302C011248F939F93AF93BF9380912920909192
S11302D02A20A0912B20B0912C200196A11DB11DA4
S11302E08093292090932A20A0932B20B0932C2034
S11302F0BF91AF919F918F910F900FBE0F901F9060
S11303001895CF92DF92EF92FF92CF93DF936B0118
S11303107C01E0E8F6E088E0818384E0828341E0C8
S113032060EA7AE08FE290E20E946B03C0912F2092
S1130330D091302083E08D838B818F7C80618B838F
S1130340CC0CDD1CEE1CFF1CCC0CDD1CEE1CFF1CBD
S1130350A7019601220F331F441F551F220F331F7D
S1130360441F551F60E078E488EE91E00E9407077F
S1130370E0EAFAE02683BB27A52F942F832F8783F7
S11303808C8180618C838C8188608C83E0EAF0E0CE
S11303908281816082837894DF91CF91FF90EF9086
S11303A0DF90CF900895CF93DF93EC0106C08FE2E6
S11303B090E20E9486038111219668816111F7CF32
S11303C0DF91CF9108951F920F920FB60F921124CF
S11303D02F933F934F935F936F937F938F939F9349
S11303E0AF93BF93EF93FF938FE290E20E94A60333
S11303F0FF91EF91BF91AF919F918F917F916F91F9
S11304005F914F913F912F910F900FBE0F901F90CE
S113041018951F920F920FB60F9211242F933F93AA
S11304204F935F936F937F938F939F93AF93BF93F8
S1130430EF93FF938FE290E20E94C203FF91EF914A
S1130440BF91AF919F918F917F916F915F914F91E8
S11304503F912F910F900FBE0F901F90189521E0A0
S1130460FC01238384819581861B910967FD939503
S11304700895FC0184811482AFEFB1E01197F1F784
S113048000C0000084830895FB014423E1F084E06C
S113049090E020E030E061E04081406840834381A7
S11304A040FFFDCF638344815581240F351F01979D
S11304B0009791F7C90199230CF4039695958795B4
S11304C0959587950895808180688083838180FFD6
S11304D0FDCF81E0838384819581089592E0909398
S11304E0CA01E82FF0E084911092CA010895CF93D5
S11304F0DF93EC01C11582E0D80759F480E20E9431
S11305006E02C0E0D2E08C8781E20E946E028D8789
S113051008C084E20E946E028C8785E20E946E020B
S11305208D87DF91CF9108950F93CF93DF931F921F
S1130530CDB7DEB72FB72983F8941BBEFC0108EDB5
S113054004BF608389818FBF0F90DF91CF910F919A
S11305500895682B81E490E00E94940208951F930B
S1130560CF93DF93182FC0E4D0E06881687F682BB5
S113057080E490E00E94940288818123DF91CF91EE
S11305801F910895FC012081207F622B60830895D0
S1130590FC012181287F622B61830895FC01218164
S11305A0607F622B61830895FC012181607F6095E7
S11305B0622361830895FC0126812C7F622B66836C
S11305C00895FC01A081B18114968C91149782FF47
S11305D003C094E0928B02C093E0928B88601496DF
S11305E08C93118A0895CF93DF93FC01958526851A
S11305F0A081B18114968C91149784FF07C083E085
S113060013968C9385E0828B118A1CC08785891789
S113061058F48785EF01C80FD11D8B8117968C93F1
S113062087858F5F87870EC08089821728F482812F
S1130630816016968C9306C083E013968C9381E0B8
S1130640828B118ADF91CF910895FC0180898830D3
S113065070F4A081B18117968C919089DF01A90F64
S1130660B11D15968C9380898F5F808B08C0A08103
S1130670B18183E013968C9382E0828B118A9685F4
S11306808089891730F40190F081E02D82E0838322
S11306900895A081B18187E013968C9381E0828BC9
S11306A0118A0895DC01ED91FC912481322F3C7074
S11306B019F00E94E102089526FF03C00E94F3028C
S11306C0089522231CF40E942503089526E0FC01CA
S11306D0228B118A0895FC01608371834283EC5B51
S11306E0FF4F108231971082339610823197108217
S11306F00895FC01EB5BFF4F2081319690812F5FC1
S11307002F7181E0291301C080E008951F93CF93D6
S1130710DF93EC01162F0E947903882399F0FE01E0
S1130720EB5BFF4F9081DE01A90FB11D93961C93E3
S11307309F5F9F719083E881F98193819C7F2A81D7
S1130740922B9383DF91CF911F910895FC01ED5B70
S1130750FF4F20812F5F2F7131963081DC01ED91A5
S1130760FC9111974081231759F0FC01ED5BFF4F79
S11307703081A30FB11D13964C93208381E008951B
S113078080E00895CF93DF93FC01EA5BFF4F208163
S113079031973081321307C0DC01ED91FC918381E4
S11307A08C7F838311C0FC01EA5BFF4F2081DC0155
S11307B0A20FB11D93962C91EC01A881B9812C93C1
S11307C080818F5F8F718083DF91CF9108951F9215
S11307D00F920FB60F9211242F933F934F935F9371
S11307E06F937F938F939F93AF93BF93EF93FF93F5
S11307F088E890E20E945203FF91EF91BF91AF917C
S11308009F918F917F916F915F914F913F912F9124
S11308100F900FBE0F901F901895CF93DF93E0E6D3
S1130820F6E08FE081838683C0E0D9E088EE93E030
S11308308EA39FA363E080E099E00E94C80260EF6A
S113084080E099E00E94D40261E080E099E00E9497
S1130850C20218AE19AE1AAE1BAE1CAE1DAE10927B
S11308603E0910923F09E0EEF7E083E0818386833E
S11308708FE39FE10197F1F700C0000083E08583D7
S1130880DF91CF910895CF93DF93EC0118161906E9
S1130890C4F460E480E099E00E94D40260E880E05F
S11308A099E00E94CE02E0E6F6E0848184608483CD
S11308B089EE93E08C1B9D0B80933E0990933F0936
S11308C021C09923B4F460E880E099E00E94D40246
S11308D060E480E099E00E94CE02E0E6F6E08481E4
S11308E088608483C751DC4FE0E0F9E0C4AFD5AF42
S11308F009C060EC80E099E00E94D4028CE0E0E65C
S1130900F6E08583DF91CF910895CF93DF93EC01D7
S113091018161906C4F460E280E099E00E94D4023B
S113092060E180E099E00E94CE02E0E6F6E0848196
S11309308260848389EE93E08C1B9D0BE0E0F9E0F8
S113094080AF91AF21C09923B4F460E180E099E0D5
S11309500E94D40260E280E099E00E94CE02E0E6C8
S1130960F6E0848181608483C751DC4FE0E0F9E0E4
S1130970C2AFD3AF09C060E380E099E00E94D40223
S113098083E0E0E6F6E08583DF91CF9108950F934D
S11309901F93CF93DF938C01EB011C161D06C4F447
S11309A060E480E099E00E94D40260E880E099E08D
S11309B00E94CE02E0E6F6E084818460848389EEBE
S11309C093E08C1B9D0B80933E0990933F0921C0BB
S11309D0DD23B4F460E880E099E00E94D40260E48E
S11309E080E099E00E94CE02E0E6F6E0848188602F
S11309F08483C751DC4FE0E0F9E0C4AFD5AF09C050
S1130A0060EC80E099E00E94D4028CE0E0E6F6E03D
S1130A10858310161106C4F460E280E099E00E9418
S1130A20D40260E180E099E00E94CE02E0E6F6E0C4
S1130A3084818260848389EE93E0801B910BE0E0E3
S1130A40F9E080AF91AF21C01123B4F460E180E0FC
S1130A5099E00E94D40260E280E099E00E94CE0214
S1130A60E0E6F6E084818160848307511C4FE0E076
S1130A70F9E002AF13AF09C060E380E099E00E949F
S1130A80D40283E0E0E6F6E08583DF91CF911F9105
S1130A900F910895009749F0EFE3FFE13197F1F7E3
S1130AA000C0000001970097B9F7089588EE93E01D
S1130AB00E9485048EE591E00E944A0580E090E062
S1130AC00E9485048EE591E00E944A0588E19CEF2E
S1130AD00E9485048EE591E00E944A0580E090E042
S1130AE00E948504089588EE93E00E9443048EE5F5
S1130AF091E00E944A0580E090E00E9443048EE564
S1130B0091E00E944A0588E19CEF0E9443048EE52F
S1130B1091E00E944A0580E090E00E944304089519
S1130B20892B39F068E17CEF88EE93E00E94C704DA
S1130B3006C068EE73E088E19CEF0E94C7048EE56E
S1130B4091E00E944A0560E070E080E090E00E943D
S1130B50C7040895CF92DF92EF92FF920F931F93F1
S1130B60CF93DF93EC01009771F10F2EF6E0CF2EB7
S1130B70F0E2DF2EF02D0F2EF0E0EF2EF0E2FF2E4C
S1130B80F02D2A976CEB72E08CEB92E00E94C70484
S1130B908AE090E00E944A05F60180810E944901A2
S1130BA08C01F70180810E9449019801281B390BAF
S1130BB0B90164547D4F8CEB92E0821B930B0E942D
S1130BC0C7042097F1F660E070E080E090E00E94B6
S1130BD0C704DF91CF911F910F91FF90EF90DF90A9
S1130BE0CF9008954F925F926F927F928F929F92CF
S1130BF0AF92BF92CF92DF92EF92FF920F931F9327
S1130C00CF93DF93A82EB92EC6E0D0E288810E944C
S1130C1049016C0100E010E2F80180810E94490161
S1130C207C01F80180810E944901782E692E80910F
S1130C3002200E944901982E892E809104200E944E
S1130C404901182F092F88810E944901582E492EE5
S1130C50809108200E944901C82FD92F80912D200E
S1130C600E94490196012E193F093F932F936F92D9
S1130C707F928F929F920F931F934F925F92DF9375
S1130C80CF939F938F932AE030E23F932F93BF92A9
S1130C90AF920E9429078A2D9B2D0E94D3018DB704
S1130CA09EB742968DBF9EBFDF91CF911F910F914A
S1130CB0FF90EF90DF90CF90BF90AF909F908F9078
S1130CC07F906F905F904F900895CF93DF93CDB74F
S1130CD0DEB76E97CDBFDEBFE0E5F0E080818260D5
S1130CE0808360E080E00E94A902E0E5F0E0818179
S1130CF081FFFDCF81E00E94AF028EE0E0E2F6E0EA
S1130D00818380E3E0E6F6E0828380E09DE7E0E033
S1130D10FAE086A397A360E080E09AE00E94C8020C
S1130D2062E080E09AE00E94DB0261E080E09AE009
S1130D300E94C202E0EAF0E08281876082837894B4
S1130D400E941D0160E071EE80E090E00E9481014C
S1130D500E940D040F2EF0E6EF2EF6E0FF2EF02D8C
S1130D6000E216E0F701808590E08095909584FF7D
S1130D7022C0F801848181708260848388EE93E0CC
S1130D800E944A050E94560588EE93E00E944A0597
S1130D900E94730588EE93E00E944A0581E090E08A
S1130DA00E94900588EE93E00E944A0580E090E05E
S1130DB00E949005D7CFF701808590E080959095AB
S1130DC085FF12C0F801848181708860848388EE75
S1130DD093E00E944A0588E893E10E94AA0588EE00
S1130DE093E00E944A05BECFF8018481817084603B
S1130DF08483CE0101960E94F205FFEF23ED80E388
S1130E00F15020408040E1F700C00000ABCFA1E2E8
S1130E101A2EAA1BBB1BFD010DC0AA1FBB1FEE1F70
S1130E20FF1FA217B307E407F50720F0A21BB30BBB
S1130E30E40BF50B661F771F881F991F1A9469F737
S1130E4060957095809590959B01AC01BD01CF0193
S1130E500895AEE0B0E0EFE2F7E00C94D1090D891B
S1130E601E8986E08C8309831A838FEF9FE78D8325
S1130E709E83AE01475E5F4F6F89788DCE010196E8
S1130E800E944B07EF81F885E00FF11F10822E9628
S1130E90E4E00C94EA09ACE0B0E0E1E5F7E00C949E
S1130EA0C3097C016B018A01FC01168217828381CC
S1130EB081FFBDC1CE0101964C01F7019381F6017A
S1130EC093FD859193FF81916F01882309F4ABC150
S1130ED0853239F493FD859193FF81916F018532B9
S1130EE029F4B70190E00E943309E7CF512C312C4B
S1130EF020E02032A0F48B3269F030F4803259F0D3
S1130F00833269F420612CC08D3239F0803339F496
S1130F10216026C02260246023C0286021C027FDF0
S1130F2027C030ED380F3A3078F426FF06C0FAE0D7
S1130F305F9E300D1124532E13C08AE0389E300D6D
S1130F401124332E20620CC08E3221F426FD6BC195
S1130F50206406C08C3611F4206802C0883641F43F
S1130F60F60193FD859193FF81916F018111C1CFAA
S1130F70982F9F7D9554933028F40C5F1F4FFFE307
S1130F80F9830DC0833631F0833771F0833509F06E
S1130F905BC022C0F801808189830E5F1F4F442407
S1130FA04394512C540115C03801F2E06F0E711CAA
S1130FB0F801A080B18026FF03C0652D70E002C057
S1130FC06FEF7FEFC5012C870E9428092C01830154
S1130FD02C852F77222E17C03801F2E06F0E711C7A
S1130FE0F801A080B18026FF03C0652D70E002C027
S1130FF06FEF7FEFC5012C870E941D092C012C8502
S11310002068222E830123FC1BC0832D90E0481608
S11310105906B0F4B70180E290E00E9433093A9493
S1131020F4CFF50127FC859127FE81915F01B7017B
S113103090E00E94330931103A94F1E04F1A5108BC
S11310404114510471F7E5C0843611F0893639F53D
S1131050F80127FF07C060817181828193810C5F51
S11310601F4F08C060817181882777FD8095982F74
S11310700E5F1F4F2F76B22E97FF09C09095809573
S1131080709561957F4F8F4F9F4F2068B22E2AE055
S113109030E0A4010E946509A82EA81844C0853731
S11310A029F42F7EB22E2AE030E025C0F22FF97FFA
S11310B0BF2E8F36C1F018F4883579F0B4C080376C
S11310C019F0883721F0AFC02F2F2061B22EB4FE63
S11310D00DC08B2D8460B82E09C024FF0AC09F2F39
S11310E09660B92E06C028E030E005C020E130E06B
S11310F002C020E132E0F801B7FE07C060817181CF
S1131100828193810C5F1F4F06C06081718180E0F2
S113111090E00E5F1F4FA4010E946509A82EA81835
S1131120FB2DFF77BF2EB6FE0BC02B2D2E7FA514F3
S113113050F4B4FE0AC0B2FC08C02B2D2E7E05C0AC
S11311407A2C2B2D03C07A2C01C0752C24FF0DC0E2
S1131150FE01EA0DF11D8081803311F4297E09C05E
S113116022FF06C07394739404C0822F867809F01A
S1131170739423FD13C020FF06C05A2C731418F473
S1131180530C5718732C731468F4B70180E290E081
S11311902C870E94330973942C85F5CF731410F4B3
S11311A0371801C0312C24FF12C0B70180E390E04E
S11311B02C870E9433092C8522FF17C021FF03C00E
S11311C088E590E002C088E790E0B7010CC0822F68
S11311D0867859F021FD02C080E201C08BE227FD30
S11311E08DE2B70190E00E943309A51438F4B701E9
S11311F080E390E00E9433095A94F7CFAA94F40153
S1131200EA0DF11D8081B70190E00E943309A1101D
S1131210F5CF332009F451CEB70180E290E00E946B
S113122033093A94F6CFF7018681978102C08FEF94
S11312309FEF2C96E2E10C94DC09FC0105906150CF
S113124070400110D8F7809590958E0F9F1F0895D8
S1131250FC016150704001900110D8F78095909581
S11312608E0F9F1F08950F931F93CF93DF93182F13
S1131270092FEB018B8181FD03C08FEF9FEF20C00D
S113128082FF10C04E815F812C813D81421753073C
S11312907CF4E881F9819F012F5F3F4F28833983D4
S11312A0108306C0E885F985812F0995892B29F7D4
S11312B02E813F812F5F3F4F2E833F83812F902FBD
S11312C0DF91CF911F910F910895FA01AA27283039
S11312D051F1203181F1E8946F936E7F6E5F7F4FFF
S11312E08F4F9F4FAF4FB1E03ED0B4E03CD0670F7B
S11312F0781F891F9A1FA11D680F791F8A1F911DCE
S1131300A11D6A0F711D811D911DA11D20D009F41D
S113131068943F912AE0269F11243019305D31935F
S1131320DEF6CF010895462F4770405D4193B3E048
S11313300FD0C9F7F6CF462F4F70405D4A3318F0EF
S1131340495D31FD4052419302D0A9F7EACFB4E0A0
S1131350A6959795879577956795BA95C9F7009758
S11313606105710508959B01AC010A2E06945795F9
S1131370479537952795BA95C9F7620F731F841F50
S1131380951FA01D08952F923F924F925F926F92E6
S11313907F928F929F92AF92BF92CF92DF92EF9201
S11313A0FF920F931F93CF93DF93CDB7DEB7CA1B82
S11313B0DB0BCDBFDEBF09942A88398848885F8457
S11313C06E847D848C849B84AA84B984C884DF80E1
S11313D0EE80FD800C811B81AA81B981CE0FD11DC5
S10F13E0CDBFDEBFED010895F894FFCFEF
S11313EC020005000300040001002534642C25349C
S11313FC642C2534642C2534642C2534642C253439
S10B140C642C2534640A0D0070
S9030000FC
